{
  "_format": "hh-sol-artifact-1",
  "contractName": "Voting",
  "sourceName": "contracts/Voting.sol",
  "abi": [
    {
      "inputs": [],
      "stateMutability": "nonpayable",
      "type": "constructor"
    },
    {
      "inputs": [
        {
          "internalType": "string",
          "name": "_name",
          "type": "string"
        }
      ],
      "name": "addCandidate",
      "outputs": [],
      "stateMutability": "nonpayable",
      "type": "function"
    },
    {
      "inputs": [
        {
          "internalType": "uint256",
          "name": "",
          "type": "uint256"
        }
      ],
      "name": "candidates",
      "outputs": [
        {
          "internalType": "uint256",
          "name": "id",
          "type": "uint256"
        },
        {
          "internalType": "string",
          "name": "name",
          "type": "string"
        },
        {
          "internalType": "uint256",
          "name": "numberOfVotes",
          "type": "uint256"
        }
      ],
      "stateMutability": "view",
      "type": "function"
    },
    {
      "inputs": [],
      "name": "checkElectionPeriod",
      "outputs": [
        {
          "internalType": "bool",
          "name": "",
          "type": "bool"
        }
      ],
      "stateMutability": "nonpayable",
      "type": "function"
    },
    {
      "inputs": [],
      "name": "electionStarted",
      "outputs": [
        {
          "internalType": "bool",
          "name": "",
          "type": "bool"
        }
      ],
      "stateMutability": "view",
      "type": "function"
    },
    {
      "inputs": [],
      "name": "electionTimer",
      "outputs": [
        {
          "internalType": "uint256",
          "name": "",
          "type": "uint256"
        }
      ],
      "stateMutability": "view",
      "type": "function"
    },
    {
      "inputs": [
        {
          "internalType": "uint256",
          "name": "",
          "type": "uint256"
        }
      ],
      "name": "listOfVoters",
      "outputs": [
        {
          "internalType": "address",
          "name": "",
          "type": "address"
        }
      ],
      "stateMutability": "view",
      "type": "function"
    },
    {
      "inputs": [],
      "name": "owner",
      "outputs": [
        {
          "internalType": "address",
          "name": "",
          "type": "address"
        }
      ],
      "stateMutability": "view",
      "type": "function"
    },
    {
      "inputs": [],
      "name": "resetAllVoterStatus",
      "outputs": [],
      "stateMutability": "nonpayable",
      "type": "function"
    },
    {
      "inputs": [],
      "name": "retrieveVotes",
      "outputs": [
        {
          "components": [
            {
              "internalType": "uint256",
              "name": "id",
              "type": "uint256"
            },
            {
              "internalType": "string",
              "name": "name",
              "type": "string"
            },
            {
              "internalType": "uint256",
              "name": "numberOfVotes",
              "type": "uint256"
            }
          ],
          "internalType": "struct Voting.Candidate[]",
          "name": "",
          "type": "tuple[]"
        }
      ],
      "stateMutability": "view",
      "type": "function"
    },
    {
      "inputs": [
        {
          "internalType": "string[]",
          "name": "_candidates",
          "type": "string[]"
        },
        {
          "internalType": "uint256",
          "name": "_votingDuration",
          "type": "uint256"
        }
      ],
      "name": "startElection",
      "outputs": [],
      "stateMutability": "nonpayable",
      "type": "function"
    },
    {
      "inputs": [
        {
          "internalType": "uint256",
          "name": "_id",
          "type": "uint256"
        }
      ],
      "name": "voteTo",
      "outputs": [],
      "stateMutability": "nonpayable",
      "type": "function"
    },
    {
      "inputs": [
        {
          "internalType": "address",
          "name": "_voter",
          "type": "address"
        }
      ],
      "name": "voterStatus",
      "outputs": [
        {
          "internalType": "bool",
          "name": "",
          "type": "bool"
        }
      ],
      "stateMutability": "view",
      "type": "function"
    },
    {
      "inputs": [
        {
          "internalType": "address",
          "name": "",
          "type": "address"
        }
      ],
      "name": "voters",
      "outputs": [
        {
          "internalType": "bool",
          "name": "",
          "type": "bool"
        }
      ],
      "stateMutability": "view",
      "type": "function"
    },
    {
      "inputs": [],
      "name": "votingEnd",
      "outputs": [
        {
          "internalType": "uint256",
          "name": "",
          "type": "uint256"
        }
      ],
      "stateMutability": "view",
      "type": "function"
    },
    {
      "inputs": [],
      "name": "votingStart",
      "outputs": [
        {
          "internalType": "uint256",
          "name": "",
          "type": "uint256"
        }
      ],
      "stateMutability": "view",
      "type": "function"
    }
  ],
  "bytecode": "0x608060405234801561001057600080fd5b5033600160006101000a81548173ffffffffffffffffffffffffffffffffffffffff021916908373ffffffffffffffffffffffffffffffffffffffff160217905550611b5d806100616000396000f3fe608060405234801561001057600080fd5b50600436106100f55760003560e01c8063576cc4f211610097578063a3ec138d11610066578063a3ec138d14610276578063d4608b72146102a6578063d4a6cac8146102b0578063d5346da1146102ce576100f5565b8063576cc4f2146101da57806385a386351461020a5780638da5cb5b146102285780639a53cbea14610246576100f5565b80633477ee2e116100d35780633477ee2e146101525780633c9a4df3146101845780633d7b995c146101a2578063462e91ec146101be576100f5565b8063031e5004146100fa5780630b56a68114610118578063101158af14610134575b600080fd5b6101026102ec565b60405161010f9190610fcb565b60405180910390f35b610132600480360381019061012d9190611248565b6103f1565b005b61013c6105dd565b60405161014991906112b3565b60405180910390f35b61016c600480360381019061016791906112ce565b6105e3565b60405161017b93929190611345565b60405180910390f35b61018c6106a5565b60405161019991906112b3565b60405180910390f35b6101bc60048036038101906101b791906112ce565b61071c565b005b6101d860048036038101906101d39190611383565b6108f4565b005b6101f460048036038101906101ef919061142a565b610a46565b6040516102019190611472565b60405180910390f35b610212610b02565b60405161021f91906112b3565b60405180910390f35b610230610b08565b60405161023d919061149c565b60405180910390f35b610260600480360381019061025b91906112ce565b610b2e565b60405161026d919061149c565b60405180910390f35b610290600480360381019061028b919061142a565b610b6d565b60405161029d9190611472565b60405180910390f35b6102ae610b8d565b005b6102b8610ce7565b6040516102c59190611472565b60405180910390f35b6102d6610d24565b6040516102e39190611472565b60405180910390f35b60606000805480602002602001604051908101604052809291908181526020016000905b828210156103e857838290600052602060002090600302016040518060600160405290816000820154815260200160018201805461034d906114e6565b80601f0160208091040260200160405190810160405280929190818152602001828054610379906114e6565b80156103c65780601f1061039b576101008083540402835291602001916103c6565b820191906000526020600020905b8154815290600101906020018083116103a957829003601f168201915b5050505050815260200160028201548152505081526020019060010190610310565b50505050905090565b600160009054906101000a900473ffffffffffffffffffffffffffffffffffffffff1673ffffffffffffffffffffffffffffffffffffffff163373ffffffffffffffffffffffffffffffffffffffff1614610481576040517f08c379a000000000000000000000000000000000000000000000000000000000815260040161047890611589565b60405180910390fd5b60001515600660009054906101000a900460ff161515146104d7576040517f08c379a00000000000000000000000000000000000000000000000000000000081526004016104ce906115f5565b60405180910390fd5b6000806104e49190610d37565b6104ec610b8d565b60005b8251811015610598576000604051806060016040528083815260200185848151811061051e5761051d611615565b5b602002602001015181526020016000815250908060018154018082558091505060019003906000526020600020906003020160009091909190915060008201518160000155602082015181600101908161057891906117f0565b506040820151816002015550508080610590906118f1565b9150506104ef565b506001600660006101000a81548160ff02191690831515021790555042600481905550603c816105c89190611939565b426105d3919061197b565b6005819055505050565b60045481565b600081815481106105f357600080fd5b906000526020600020906003020160009150905080600001549080600101805461061c906114e6565b80601f0160208091040260200160405190810160405280929190818152602001828054610648906114e6565b80156106955780601f1061066a57610100808354040283529160200191610695565b820191906000526020600020905b81548152906001019060200180831161067857829003601f168201915b5050505050908060020154905083565b6000600660009054906101000a900460ff166106f6576040517f08c379a00000000000000000000000000000000000000000000000000000000081526004016106ed906119fb565b60405180910390fd5b60055442106107085760009050610719565b426005546107169190611a1b565b90505b90565b600660009054906101000a900460ff1661076b576040517f08c379a0000000000000000000000000000000000000000000000000000000008152600401610762906119fb565b60405180910390fd5b610773610ce7565b6107b2576040517f08c379a00000000000000000000000000000000000000000000000000000000081526004016107a990611a9b565b60405180910390fd5b6107bb33610a46565b156107fb576040517f08c379a00000000000000000000000000000000000000000000000000000000081526004016107f290611b07565b60405180910390fd5b6000818154811061080f5761080e611615565b5b90600052602060002090600302016002016000815480929190610831906118f1565b91905055506001600260003373ffffffffffffffffffffffffffffffffffffffff1673ffffffffffffffffffffffffffffffffffffffff16815260200190815260200160002060006101000a81548160ff0219169083151502179055506003339080600181540180825580915050600190039060005260206000200160009091909190916101000a81548173ffffffffffffffffffffffffffffffffffffffff021916908373ffffffffffffffffffffffffffffffffffffffff16021790555050565b600160009054906101000a900473ffffffffffffffffffffffffffffffffffffffff1673ffffffffffffffffffffffffffffffffffffffff163373ffffffffffffffffffffffffffffffffffffffff1614610984576040517f08c379a000000000000000000000000000000000000000000000000000000000815260040161097b90611589565b60405180910390fd5b61098c610ce7565b6109cb576040517f08c379a00000000000000000000000000000000000000000000000000000000081526004016109c290611a9b565b60405180910390fd5b60006040518060600160405280600080549050815260200183815260200160008152509080600181540180825580915050600190039060005260206000209060030201600090919091909150600082015181600001556020820151816001019081610a3691906117f0565b5060408201518160020155505050565b6000600660009054906101000a900460ff16610a97576040517f08c379a0000000000000000000000000000000000000000000000000000000008152600401610a8e906119fb565b60405180910390fd5b60011515600260008473ffffffffffffffffffffffffffffffffffffffff1673ffffffffffffffffffffffffffffffffffffffff16815260200190815260200160002060009054906101000a900460ff16151503610af85760019050610afd565b600090505b919050565b60055481565b600160009054906101000a900473ffffffffffffffffffffffffffffffffffffffff1681565b60038181548110610b3e57600080fd5b906000526020600020016000915054906101000a900473ffffffffffffffffffffffffffffffffffffffff1681565b60026020528060005260406000206000915054906101000a900460ff1681565b600160009054906101000a900473ffffffffffffffffffffffffffffffffffffffff1673ffffffffffffffffffffffffffffffffffffffff163373ffffffffffffffffffffffffffffffffffffffff1614610c1d576040517f08c379a0000000000000000000000000000000000000000000000000000000008152600401610c1490611589565b60405180910390fd5b60005b600380549050811015610cd65760006002600060038481548110610c4757610c46611615565b5b9060005260206000200160009054906101000a900473ffffffffffffffffffffffffffffffffffffffff1673ffffffffffffffffffffffffffffffffffffffff1673ffffffffffffffffffffffffffffffffffffffff16815260200190815260200160002060006101000a81548160ff0219169083151502179055508080610cce906118f1565b915050610c20565b5060036000610ce59190610d5b565b565b600080610cf26106a5565b1115610d015760019050610d21565b6000600660006101000a81548160ff021916908315150217905550600090505b90565b600660009054906101000a900460ff1681565b5080546000825560030290600052602060002090810190610d589190610d7c565b50565b5080546000825590600052602060002090810190610d799190610db3565b50565b5b80821115610daf57600080820160009055600182016000610d9e9190610dd0565b600282016000905550600301610d7d565b5090565b5b80821115610dcc576000816000905550600101610db4565b5090565b508054610ddc906114e6565b6000825580601f10610dee5750610e0d565b601f016020900490600052602060002090810190610e0c9190610db3565b5b50565b600081519050919050565b600082825260208201905092915050565b6000819050602082019050919050565b6000819050919050565b610e4f81610e3c565b82525050565b600081519050919050565b600082825260208201905092915050565b60005b83811015610e8f578082015181840152602081019050610e74565b60008484015250505050565b6000601f19601f8301169050919050565b6000610eb782610e55565b610ec18185610e60565b9350610ed1818560208601610e71565b610eda81610e9b565b840191505092915050565b6000606083016000830151610efd6000860182610e46565b5060208301518482036020860152610f158282610eac565b9150506040830151610f2a6040860182610e46565b508091505092915050565b6000610f418383610ee5565b905092915050565b6000602082019050919050565b6000610f6182610e10565b610f6b8185610e1b565b935083602082028501610f7d85610e2c565b8060005b85811015610fb95784840389528151610f9a8582610f35565b9450610fa583610f49565b925060208a01995050600181019050610f81565b50829750879550505050505092915050565b60006020820190508181036000830152610fe58184610f56565b905092915050565b6000604051905090565b600080fd5b600080fd5b600080fd5b7f4e487b7100000000000000000000000000000000000000000000000000000000600052604160045260246000fd5b61103e82610e9b565b810181811067ffffffffffffffff8211171561105d5761105c611006565b5b80604052505050565b6000611070610fed565b905061107c8282611035565b919050565b600067ffffffffffffffff82111561109c5761109b611006565b5b602082029050602081019050919050565b600080fd5b600080fd5b600067ffffffffffffffff8211156110d2576110d1611006565b5b6110db82610e9b565b9050602081019050919050565b82818337600083830152505050565b600061110a611105846110b7565b611066565b905082815260208101848484011115611126576111256110b2565b5b6111318482856110e8565b509392505050565b600082601f83011261114e5761114d611001565b5b813561115e8482602086016110f7565b91505092915050565b600061117a61117584611081565b611066565b9050808382526020820190506020840283018581111561119d5761119c6110ad565b5b835b818110156111e457803567ffffffffffffffff8111156111c2576111c1611001565b5b8086016111cf8982611139565b8552602085019450505060208101905061119f565b5050509392505050565b600082601f83011261120357611202611001565b5b8135611213848260208601611167565b91505092915050565b61122581610e3c565b811461123057600080fd5b50565b6000813590506112428161121c565b92915050565b6000806040838503121561125f5761125e610ff7565b5b600083013567ffffffffffffffff81111561127d5761127c610ffc565b5b611289858286016111ee565b925050602061129a85828601611233565b9150509250929050565b6112ad81610e3c565b82525050565b60006020820190506112c860008301846112a4565b92915050565b6000602082840312156112e4576112e3610ff7565b5b60006112f284828501611233565b91505092915050565b600082825260208201905092915050565b600061131782610e55565b61132181856112fb565b9350611331818560208601610e71565b61133a81610e9b565b840191505092915050565b600060608201905061135a60008301866112a4565b818103602083015261136c818561130c565b905061137b60408301846112a4565b949350505050565b60006020828403121561139957611398610ff7565b5b600082013567ffffffffffffffff8111156113b7576113b6610ffc565b5b6113c384828501611139565b91505092915050565b600073ffffffffffffffffffffffffffffffffffffffff82169050919050565b60006113f7826113cc565b9050919050565b611407816113ec565b811461141257600080fd5b50565b600081359050611424816113fe565b92915050565b6000602082840312156114405761143f610ff7565b5b600061144e84828501611415565b91505092915050565b60008115159050919050565b61146c81611457565b82525050565b60006020820190506114876000830184611463565b92915050565b611496816113ec565b82525050565b60006020820190506114b1600083018461148d565b92915050565b7f4e487b7100000000000000000000000000000000000000000000000000000000600052602260045260246000fd5b600060028204905060018216806114fe57607f821691505b602082108103611511576115106114b7565b5b50919050565b7f4572726f723a20596f7520646f206e6f7420686176652061646d696e2070726960008201527f76696c656765732e000000000000000000000000000000000000000000000000602082015250565b60006115736028836112fb565b915061157e82611517565b604082019050919050565b600060208201905081810360008301526115a281611566565b9050919050565b7f456c656374696f6e2069732063757272656e746c7920656c656374696f6e2e00600082015250565b60006115df601f836112fb565b91506115ea826115a9565b602082019050919050565b6000602082019050818103600083015261160e816115d2565b9050919050565b7f4e487b7100000000000000000000000000000000000000000000000000000000600052603260045260246000fd5b60008190508160005260206000209050919050565b60006020601f8301049050919050565b600082821b905092915050565b6000600883026116a67fffffffffffffffffffffffffffffffffffffffffffffffffffffffffffffffff82611669565b6116b08683611669565b95508019841693508086168417925050509392505050565b6000819050919050565b60006116ed6116e86116e384610e3c565b6116c8565b610e3c565b9050919050565b6000819050919050565b611707836116d2565b61171b611713826116f4565b848454611676565b825550505050565b600090565b611730611723565b61173b8184846116fe565b505050565b5b8181101561175f57611754600082611728565b600181019050611741565b5050565b601f8211156117a45761177581611644565b61177e84611659565b8101602085101561178d578190505b6117a161179985611659565b830182611740565b50505b505050565b600082821c905092915050565b60006117c7600019846008026117a9565b1980831691505092915050565b60006117e083836117b6565b9150826002028217905092915050565b6117f982610e55565b67ffffffffffffffff81111561181257611811611006565b5b61181c82546114e6565b611827828285611763565b600060209050601f83116001811461185a5760008415611848578287015190505b61185285826117d4565b8655506118ba565b601f19841661186886611644565b60005b828110156118905784890151825560018201915060208501945060208101905061186b565b868310156118ad57848901516118a9601f8916826117b6565b8355505b6001600288020188555050505b505050505050565b7f4e487b7100000000000000000000000000000000000000000000000000000000600052601160045260246000fd5b60006118fc82610e3c565b91507fffffffffffffffffffffffffffffffffffffffffffffffffffffffffffffffff820361192e5761192d6118c2565b5b600182019050919050565b600061194482610e3c565b915061194f83610e3c565b925082820261195d81610e3c565b91508282048414831517611974576119736118c2565b5b5092915050565b600061198682610e3c565b915061199183610e3c565b92508282019050808211156119a9576119a86118c2565b5b92915050565b7f456c656374696f6e20686173206e6f7420737461727465642e00000000000000600082015250565b60006119e56019836112fb565b91506119f0826119af565b602082019050919050565b60006020820190508181036000830152611a14816119d8565b9050919050565b6000611a2682610e3c565b9150611a3183610e3c565b9250828203905081811115611a4957611a486118c2565b5b92915050565b7f456c656374696f6e20506572696f642068617320656e6465642e000000000000600082015250565b6000611a85601a836112fb565b9150611a9082611a4f565b602082019050919050565b60006020820190508181036000830152611ab481611a78565b9050919050565b7f596f752063616e206f6e6c7920766f7465206f6e63652e000000000000000000600082015250565b6000611af16017836112fb565b9150611afc82611abb565b602082019050919050565b60006020820190508181036000830152611b2081611ae4565b905091905056fea2646970667358221220b9bf934bef122a46de147cbf6c797bc9acad274bd66b035321f54221f29392e164736f6c63430008120033",
  "linkReferences": {},
  "deployedLinkReferences": {}
}