{
  "_format": "hh-sol-artifact-1",
  "contractName": "EVS",
  "sourceName": "contracts/EVS.sol",
  "abi": [
    {
      "inputs": [],
      "stateMutability": "nonpayable",
      "type": "constructor"
    },
    {
      "inputs": [],
      "name": "ETimer",
      "outputs": [
        {
          "internalType": "uint256",
          "name": "",
          "type": "uint256"
        }
      ],
      "stateMutability": "view",
      "type": "function"
    },
    {
      "inputs": [],
      "name": "admin",
      "outputs": [
        {
          "internalType": "address",
          "name": "",
          "type": "address"
        }
      ],
      "stateMutability": "view",
      "type": "function"
    },
    {
      "inputs": [
        {
          "internalType": "uint256",
          "name": "",
          "type": "uint256"
        }
      ],
      "name": "candidates",
      "outputs": [
        {
          "internalType": "uint256",
          "name": "id",
          "type": "uint256"
        },
        {
          "internalType": "string",
          "name": "name",
          "type": "string"
        },
        {
          "internalType": "uint256",
          "name": "numVotes",
          "type": "uint256"
        }
      ],
      "stateMutability": "view",
      "type": "function"
    },
    {
      "inputs": [],
      "name": "checkElectionPeriod",
      "outputs": [
        {
          "internalType": "bool",
          "name": "",
          "type": "bool"
        }
      ],
      "stateMutability": "nonpayable",
      "type": "function"
    },
    {
      "inputs": [
        {
          "internalType": "string",
          "name": "_name",
          "type": "string"
        }
      ],
      "name": "createCandidate",
      "outputs": [],
      "stateMutability": "nonpayable",
      "type": "function"
    },
    {
      "inputs": [],
      "name": "electionStarted",
      "outputs": [
        {
          "internalType": "bool",
          "name": "",
          "type": "bool"
        }
      ],
      "stateMutability": "view",
      "type": "function"
    },
    {
      "inputs": [],
      "name": "getVotes",
      "outputs": [
        {
          "components": [
            {
              "internalType": "uint256",
              "name": "id",
              "type": "uint256"
            },
            {
              "internalType": "string",
              "name": "name",
              "type": "string"
            },
            {
              "internalType": "uint256",
              "name": "numVotes",
              "type": "uint256"
            }
          ],
          "internalType": "struct EVS.Candidate[]",
          "name": "",
          "type": "tuple[]"
        }
      ],
      "stateMutability": "view",
      "type": "function"
    },
    {
      "inputs": [],
      "name": "resetVoterStatus",
      "outputs": [],
      "stateMutability": "nonpayable",
      "type": "function"
    },
    {
      "inputs": [
        {
          "internalType": "string[]",
          "name": "_candidates",
          "type": "string[]"
        },
        {
          "internalType": "uint256",
          "name": "_votingLength",
          "type": "uint256"
        }
      ],
      "name": "startElection",
      "outputs": [],
      "stateMutability": "nonpayable",
      "type": "function"
    },
    {
      "inputs": [],
      "name": "vEnd",
      "outputs": [
        {
          "internalType": "uint256",
          "name": "",
          "type": "uint256"
        }
      ],
      "stateMutability": "view",
      "type": "function"
    },
    {
      "inputs": [],
      "name": "vStart",
      "outputs": [
        {
          "internalType": "uint256",
          "name": "",
          "type": "uint256"
        }
      ],
      "stateMutability": "view",
      "type": "function"
    },
    {
      "inputs": [
        {
          "internalType": "uint256",
          "name": "_id",
          "type": "uint256"
        }
      ],
      "name": "voteTo",
      "outputs": [],
      "stateMutability": "nonpayable",
      "type": "function"
    },
    {
      "inputs": [
        {
          "internalType": "uint256",
          "name": "",
          "type": "uint256"
        }
      ],
      "name": "voterList",
      "outputs": [
        {
          "internalType": "address",
          "name": "",
          "type": "address"
        }
      ],
      "stateMutability": "view",
      "type": "function"
    },
    {
      "inputs": [
        {
          "internalType": "address",
          "name": "_voter",
          "type": "address"
        }
      ],
      "name": "voterStatus",
      "outputs": [
        {
          "internalType": "bool",
          "name": "",
          "type": "bool"
        }
      ],
      "stateMutability": "view",
      "type": "function"
    },
    {
      "inputs": [
        {
          "internalType": "address",
          "name": "",
          "type": "address"
        }
      ],
      "name": "voters",
      "outputs": [
        {
          "internalType": "bool",
          "name": "",
          "type": "bool"
        }
      ],
      "stateMutability": "view",
      "type": "function"
    }
  ],
  "bytecode": "0x608060405234801561001057600080fd5b5033600160006101000a81548173ffffffffffffffffffffffffffffffffffffffff021916908373ffffffffffffffffffffffffffffffffffffffff160217905550611b5d806100616000396000f3fe608060405234801561001057600080fd5b50600436106100f55760003560e01c80635fba7a5611610097578063a3ec138d11610066578063a3ec138d14610262578063d4a6cac814610292578063d5346da1146102b0578063f851a440146102ce576100f5565b80635fba7a56146102005780636d9b32d41461021c578063867795451461023a5780639fae95fc14610244576100f5565b80633477ee2e116100d35780633477ee2e146101525780633d7b995c1461018457806350e2e8af146101a0578063576cc4f2146101d0576100f5565b80630b56a681146100fa5780630dc9601514610116578063313d0dbd14610134575b600080fd5b610114600480360381019061010f9190611086565b6102ec565b005b61011e6104d8565b60405161012b9190611282565b60405180910390f35b61013c6105dd565b60405161014991906112b3565b60405180910390f35b61016c600480360381019061016791906112ce565b610654565b60405161017b93929190611345565b60405180910390f35b61019e600480360381019061019991906112ce565b610716565b005b6101ba60048036038101906101b591906112ce565b6108ee565b6040516101c791906113c4565b60405180910390f35b6101ea60048036038101906101e5919061140b565b61092d565b6040516101f79190611453565b60405180910390f35b61021a6004803603810190610215919061146e565b6109e9565b005b610224610b3b565b60405161023191906112b3565b60405180910390f35b610242610b41565b005b61024c610c9b565b60405161025991906112b3565b60405180910390f35b61027c6004803603810190610277919061140b565b610ca1565b6040516102899190611453565b60405180910390f35b61029a610cc1565b6040516102a79190611453565b60405180910390f35b6102b8610cfe565b6040516102c59190611453565b60405180910390f35b6102d6610d11565b6040516102e391906113c4565b60405180910390f35b600160009054906101000a900473ffffffffffffffffffffffffffffffffffffffff1673ffffffffffffffffffffffffffffffffffffffff163373ffffffffffffffffffffffffffffffffffffffff161461037c576040517f08c379a000000000000000000000000000000000000000000000000000000000815260040161037390611529565b60405180910390fd5b60001515600660009054906101000a900460ff161515146103d2576040517f08c379a00000000000000000000000000000000000000000000000000000000081526004016103c990611595565b60405180910390fd5b6000806103df9190610d37565b6103e7610b41565b60005b82518110156104935760006040518060600160405280838152602001858481518110610419576104186115b5565b5b602002602001015181526020016000815250908060018154018082558091505060019003906000526020600020906003020160009091909190915060008201518160000155602082015181600101908161047391906117f0565b50604082015181600201555050808061048b906118f1565b9150506103ea565b506001600660006101000a81548160ff02191690831515021790555042600481905550603c816104c39190611939565b426104ce919061197b565b6005819055505050565b60606000805480602002602001604051908101604052809291908181526020016000905b828210156105d457838290600052602060002090600302016040518060600160405290816000820154815260200160018201805461053990611613565b80601f016020809104026020016040519081016040528092919081815260200182805461056590611613565b80156105b25780601f10610587576101008083540402835291602001916105b2565b820191906000526020600020905b81548152906001019060200180831161059557829003601f168201915b50505050508152602001600282015481525050815260200190600101906104fc565b50505050905090565b6000600660009054906101000a900460ff1661062e576040517f08c379a0000000000000000000000000000000000000000000000000000000008152600401610625906119fb565b60405180910390fd5b60055442106106405760009050610651565b4260055461064e9190611a1b565b90505b90565b6000818154811061066457600080fd5b906000526020600020906003020160009150905080600001549080600101805461068d90611613565b80601f01602080910402602001604051908101604052809291908181526020018280546106b990611613565b80156107065780601f106106db57610100808354040283529160200191610706565b820191906000526020600020905b8154815290600101906020018083116106e957829003601f168201915b5050505050908060020154905083565b600660009054906101000a900460ff16610765576040517f08c379a000000000000000000000000000000000000000000000000000000000815260040161075c906119fb565b60405180910390fd5b61076d610cc1565b6107ac576040517f08c379a00000000000000000000000000000000000000000000000000000000081526004016107a390611a9b565b60405180910390fd5b6107b53361092d565b156107f5576040517f08c379a00000000000000000000000000000000000000000000000000000000081526004016107ec90611b07565b60405180910390fd5b60008181548110610809576108086115b5565b5b9060005260206000209060030201600201600081548092919061082b906118f1565b91905055506001600260003373ffffffffffffffffffffffffffffffffffffffff1673ffffffffffffffffffffffffffffffffffffffff16815260200190815260200160002060006101000a81548160ff0219169083151502179055506003339080600181540180825580915050600190039060005260206000200160009091909190916101000a81548173ffffffffffffffffffffffffffffffffffffffff021916908373ffffffffffffffffffffffffffffffffffffffff16021790555050565b600381815481106108fe57600080fd5b906000526020600020016000915054906101000a900473ffffffffffffffffffffffffffffffffffffffff1681565b6000600660009054906101000a900460ff1661097e576040517f08c379a0000000000000000000000000000000000000000000000000000000008152600401610975906119fb565b60405180910390fd5b60011515600260008473ffffffffffffffffffffffffffffffffffffffff1673ffffffffffffffffffffffffffffffffffffffff16815260200190815260200160002060009054906101000a900460ff161515036109df57600190506109e4565b600090505b919050565b600160009054906101000a900473ffffffffffffffffffffffffffffffffffffffff1673ffffffffffffffffffffffffffffffffffffffff163373ffffffffffffffffffffffffffffffffffffffff1614610a79576040517f08c379a0000000000000000000000000000000000000000000000000000000008152600401610a7090611529565b60405180910390fd5b610a81610cc1565b610ac0576040517f08c379a0000000000000000000000000000000000000000000000000000000008152600401610ab790611a9b565b60405180910390fd5b60006040518060600160405280600080549050815260200183815260200160008152509080600181540180825580915050600190039060005260206000209060030201600090919091909150600082015181600001556020820151816001019081610b2b91906117f0565b5060408201518160020155505050565b60055481565b600160009054906101000a900473ffffffffffffffffffffffffffffffffffffffff1673ffffffffffffffffffffffffffffffffffffffff163373ffffffffffffffffffffffffffffffffffffffff1614610bd1576040517f08c379a0000000000000000000000000000000000000000000000000000000008152600401610bc890611529565b60405180910390fd5b60005b600380549050811015610c8a5760006002600060038481548110610bfb57610bfa6115b5565b5b9060005260206000200160009054906101000a900473ffffffffffffffffffffffffffffffffffffffff1673ffffffffffffffffffffffffffffffffffffffff1673ffffffffffffffffffffffffffffffffffffffff16815260200190815260200160002060006101000a81548160ff0219169083151502179055508080610c82906118f1565b915050610bd4565b5060036000610c999190610d5b565b565b60045481565b60026020528060005260406000206000915054906101000a900460ff1681565b600080610ccc6105dd565b1115610cdb5760019050610cfb565b6000600660006101000a81548160ff021916908315150217905550600090505b90565b600660009054906101000a900460ff1681565b600160009054906101000a900473ffffffffffffffffffffffffffffffffffffffff1681565b5080546000825560030290600052602060002090810190610d589190610d7c565b50565b5080546000825590600052602060002090810190610d799190610db3565b50565b5b80821115610daf57600080820160009055600182016000610d9e9190610dd0565b600282016000905550600301610d7d565b5090565b5b80821115610dcc576000816000905550600101610db4565b5090565b508054610ddc90611613565b6000825580601f10610dee5750610e0d565b601f016020900490600052602060002090810190610e0c9190610db3565b5b50565b6000604051905090565b600080fd5b600080fd5b600080fd5b6000601f19601f8301169050919050565b7f4e487b7100000000000000000000000000000000000000000000000000000000600052604160045260246000fd5b610e7282610e29565b810181811067ffffffffffffffff82111715610e9157610e90610e3a565b5b80604052505050565b6000610ea4610e10565b9050610eb08282610e69565b919050565b600067ffffffffffffffff821115610ed057610ecf610e3a565b5b602082029050602081019050919050565b600080fd5b600080fd5b600067ffffffffffffffff821115610f0657610f05610e3a565b5b610f0f82610e29565b9050602081019050919050565b82818337600083830152505050565b6000610f3e610f3984610eeb565b610e9a565b905082815260208101848484011115610f5a57610f59610ee6565b5b610f65848285610f1c565b509392505050565b600082601f830112610f8257610f81610e24565b5b8135610f92848260208601610f2b565b91505092915050565b6000610fae610fa984610eb5565b610e9a565b90508083825260208201905060208402830185811115610fd157610fd0610ee1565b5b835b8181101561101857803567ffffffffffffffff811115610ff657610ff5610e24565b5b8086016110038982610f6d565b85526020850194505050602081019050610fd3565b5050509392505050565b600082601f83011261103757611036610e24565b5b8135611047848260208601610f9b565b91505092915050565b6000819050919050565b61106381611050565b811461106e57600080fd5b50565b6000813590506110808161105a565b92915050565b6000806040838503121561109d5761109c610e1a565b5b600083013567ffffffffffffffff8111156110bb576110ba610e1f565b5b6110c785828601611022565b92505060206110d885828601611071565b9150509250929050565b600081519050919050565b600082825260208201905092915050565b6000819050602082019050919050565b61111781611050565b82525050565b600081519050919050565b600082825260208201905092915050565b60005b8381101561115757808201518184015260208101905061113c565b60008484015250505050565b600061116e8261111d565b6111788185611128565b9350611188818560208601611139565b61119181610e29565b840191505092915050565b60006060830160008301516111b4600086018261110e565b50602083015184820360208601526111cc8282611163565b91505060408301516111e1604086018261110e565b508091505092915050565b60006111f8838361119c565b905092915050565b6000602082019050919050565b6000611218826110e2565b61122281856110ed565b935083602082028501611234856110fe565b8060005b85811015611270578484038952815161125185826111ec565b945061125c83611200565b925060208a01995050600181019050611238565b50829750879550505050505092915050565b6000602082019050818103600083015261129c818461120d565b905092915050565b6112ad81611050565b82525050565b60006020820190506112c860008301846112a4565b92915050565b6000602082840312156112e4576112e3610e1a565b5b60006112f284828501611071565b91505092915050565b600082825260208201905092915050565b60006113178261111d565b61132181856112fb565b9350611331818560208601611139565b61133a81610e29565b840191505092915050565b600060608201905061135a60008301866112a4565b818103602083015261136c818561130c565b905061137b60408301846112a4565b949350505050565b600073ffffffffffffffffffffffffffffffffffffffff82169050919050565b60006113ae82611383565b9050919050565b6113be816113a3565b82525050565b60006020820190506113d960008301846113b5565b92915050565b6113e8816113a3565b81146113f357600080fd5b50565b600081359050611405816113df565b92915050565b60006020828403121561142157611420610e1a565b5b600061142f848285016113f6565b91505092915050565b60008115159050919050565b61144d81611438565b82525050565b60006020820190506114686000830184611444565b92915050565b60006020828403121561148457611483610e1a565b5b600082013567ffffffffffffffff8111156114a2576114a1610e1f565b5b6114ae84828501610f6d565b91505092915050565b7f4572726f723a20596f7520646f206e6f7420686176652061646d696e2070726960008201527f76696c656765732e000000000000000000000000000000000000000000000000602082015250565b60006115136028836112fb565b915061151e826114b7565b604082019050919050565b6000602082019050818103600083015261154281611506565b9050919050565b7f456c656374696f6e2069732063757272656e746c79206f6e676f696e672e0000600082015250565b600061157f601e836112fb565b915061158a82611549565b602082019050919050565b600060208201905081810360008301526115ae81611572565b9050919050565b7f4e487b7100000000000000000000000000000000000000000000000000000000600052603260045260246000fd5b7f4e487b7100000000000000000000000000000000000000000000000000000000600052602260045260246000fd5b6000600282049050600182168061162b57607f821691505b60208210810361163e5761163d6115e4565b5b50919050565b60008190508160005260206000209050919050565b60006020601f8301049050919050565b600082821b905092915050565b6000600883026116a67fffffffffffffffffffffffffffffffffffffffffffffffffffffffffffffffff82611669565b6116b08683611669565b95508019841693508086168417925050509392505050565b6000819050919050565b60006116ed6116e86116e384611050565b6116c8565b611050565b9050919050565b6000819050919050565b611707836116d2565b61171b611713826116f4565b848454611676565b825550505050565b600090565b611730611723565b61173b8184846116fe565b505050565b5b8181101561175f57611754600082611728565b600181019050611741565b5050565b601f8211156117a45761177581611644565b61177e84611659565b8101602085101561178d578190505b6117a161179985611659565b830182611740565b50505b505050565b600082821c905092915050565b60006117c7600019846008026117a9565b1980831691505092915050565b60006117e083836117b6565b9150826002028217905092915050565b6117f98261111d565b67ffffffffffffffff81111561181257611811610e3a565b5b61181c8254611613565b611827828285611763565b600060209050601f83116001811461185a5760008415611848578287015190505b61185285826117d4565b8655506118ba565b601f19841661186886611644565b60005b828110156118905784890151825560018201915060208501945060208101905061186b565b868310156118ad57848901516118a9601f8916826117b6565b8355505b6001600288020188555050505b505050505050565b7f4e487b7100000000000000000000000000000000000000000000000000000000600052601160045260246000fd5b60006118fc82611050565b91507fffffffffffffffffffffffffffffffffffffffffffffffffffffffffffffffff820361192e5761192d6118c2565b5b600182019050919050565b600061194482611050565b915061194f83611050565b925082820261195d81611050565b91508282048414831517611974576119736118c2565b5b5092915050565b600061198682611050565b915061199183611050565b92508282019050808211156119a9576119a86118c2565b5b92915050565b7f456c656374696f6e20686173206e6f7420737461727465642e00000000000000600082015250565b60006119e56019836112fb565b91506119f0826119af565b602082019050919050565b60006020820190508181036000830152611a14816119d8565b9050919050565b6000611a2682611050565b9150611a3183611050565b9250828203905081811115611a4957611a486118c2565b5b92915050565b7f456c656374696f6e20506572696f642068617320656e6465642e000000000000600082015250565b6000611a85601a836112fb565b9150611a9082611a4f565b602082019050919050565b60006020820190508181036000830152611ab481611a78565b9050919050565b7f596f752063616e206f6e6c7920766f7465206f6e63652e000000000000000000600082015250565b6000611af16017836112fb565b9150611afc82611abb565b602082019050919050565b60006020820190508181036000830152611b2081611ae4565b905091905056fea2646970667358221220a6bf9917dd44992a7cd669eff09119fa65415680b65df3eb1287aeab7a44c97f64736f6c63430008130033",
  "linkReferences": {},
  "deployedLinkReferences": {}
}